:100000000C942A000C9434000C9434000C943400AA
:100010000C9434000C9434000C9434000C94340090
:100020000C9434000C9434000C9434000C94340080
:100030000C9434000C9434000C9434000C94340070
:100040000C9434000C9434000C9434000C94340060
:100050000C94340011241FBECFE5D4E0DEBFCDBF29
:100060000E9436000C94E1000C9400008FEF84BBDA
:100070008FEF85BB2FE73AE196E02150304090406A
:10008000E1F700C0000015BA2FE33DE093E02150F6
:1000900030409040E1F700C0000091E095BB2FE3B5
:1000A0003DE093E0215030409040E1F700C0000077
:1000B00093E095BB2FE33DE093E02150304090402A
:1000C000E1F700C0000097E095BB2FE33DE093E02F
:1000D000215030409040E1F700C0000015BA2FE3F6
:1000E0003DE093E0215030409040E1F700C0000037
:1000F0009FE095BB2FE33DE093E0215030409040DE
:10010000E1F700C0000015BA2FE33DE093E0215075
:1001100030409040E1F700C000009FE195BB2FE325
:100120003DE093E0215030409040E1F700C00000F6
:1001300015BA2FE33DE093E0215030409040E1F7C5
:1001400000C000009FE395BB2FE33DE093E021500A
:1001500030409040E1F700C0000015BA2FE33DE0C9
:1001600093E0215030409040E1F700C000009FE74D
:1001700095BB2FE33DE093E0215030409040E1F704
:1001800000C0000015BA2FE33DE093E0215030405D
:100190009040E1F700C0000085BB2FE33DE083E025
:1001A000215030408040E1F700C0000015BA9FE3C5
:1001B0002DE033E0915020403040E1F700C00000D6
:0601C00057CFF894FFCFB9
:00000001FF
